:1000000012C0F0C0D5C02AC029C028C027C026C051
:1000100025C024C023C022C021C020C01FC01EC0D4
:100020001DC01CC01BC011241FBECFE5D4E0DEBF25
:10003000CDBF10E0A0E6B0E0EEE2F2E002C0059035
:100040000D92A437B107D9F720E0A4E7B0E001C0D2
:100050001D92AC37B207E1F73FD0E7C0D1CFECE15A
:10006000E5BB880F991FFC01E05AFF4F808188BBD8
:1000700089EF90E00197F1F700C000008AE185BBAD
:10008000660F771FFB01E05AFF4F808188BB89EF25
:1000900090E00197F1F700C0000086E185BB440FB6
:1000A000551FFA01E05AFF4F808188BB89EF90E02D
:1000B0000197F1F700C000008EE085BB220F331FCF
:1000C000F901E05AFF4F808188BB89EF90E00197EA
:1000D000F1F700C0000008958FEF81BB8EE184BB73
:1000E000789480EC8BBF8FE085BF209178003091B1
:1000F000790040917A0050917B0060917600709178
:1001000077008091740090917500A9DFEECF809107
:1001100078009091790001968A3091052CF49093A3
:1001200079008093780008951092790010927800F9
:1001300080917A0090917B0001968A3091052CF491
:1001400090937B0080937A00089510927B00109228
:100150007A00809176009091770001968A3091051F
:100160002CF4909377008093760008951092770096
:100170001092760080917400909175000196909392
:100180007500809374000A9794F089E090E0909352
:1001900079008093780090937B0080937A0090930D
:1001A0007700809376009093750080937400089593
:1001B0001F920F920FB60F92112410927900109295
:1001C000780010927B0010927A00109277001092C3
:1001D000760010927500109274000F900FBE0F9071
:1001E0001F9018951F920F920FB60F9211242F9304
:1001F0003F934F935F936F937F938F939F93AF93AF
:10020000BF93EF93FF9383DFFF91EF91BF91AF9186
:100210009F918F917F916F915F914F913F912F911E
:0E0220000F900FBE0F901F901895F894FFCF0F
:10022E00FC006000DA00F2006600B600BE00E000DE
:04023E00FE00F600C8
:00000001FF
